{
    "jsonrpc": "2.0",
    "result": {
        "author": "0x52bc44d5378309ee2abf1539bf71de1b7d7be3b5",
        "difficulty": "0xadaeb5819bd",
        "extraData": "0xd783010303844765746887676f312e342e32856c696e7578",
        "gasLimit": "0x2fefd8",
        "gasUsed": "0x1e55d",
        "hash": "0xda8c5b2a4bd72196475b83d9633c9d2a0abc7fe6b9e0c6edc546c4bb2d2de688",
        "logsBloom": "0x00000000000000000000000000000000000000000000000000000000000000000000000000000000000000000000000000100000000000000000000000000000000000000000000000000008000000000000000000000000000000000000000000000000000000000000000000000000000000000000004000000010000080000000000000000000000000000000000000000000000000400000000000004000000000000800000100000000800000000000000000000000000000000000000000800002000000000000000000040000000000000000000000000000004000200000000000000000020000000080000000000000000000000008000000000000",
        "miner": "0x52bc44d5378309ee2abf1539bf71de1b7d7be3b5",
        "mixHash": "0xef8b35c1fe74b65adabe83bb93639df7273d25701e91f01a20c206478c1f89cf",
        "nonce": "0x20f24249cc24eafa",
        "number": "0xf2df0",
        "parentHash": "0x897547ada14c7f7b734501602c43b4e6c992fe06e546794a67c899184e48d5f6",
        "receiptsRoot": "0x107d486e8114a7ad6e2fa0df34fbdbeb9d2c193999d20acb4c111b19f8619cb0",
        "sealFields": [
            "0xa0ef8b35c1fe74b65adabe83bb93639df7273d25701e91f01a20c206478c1f89cf",
            "0x8820f24249cc24eafa"
        ],
        "sha3Uncles": "0x1dcc4de8dec75d7aab85b567b6ccd41ad312451b948a7413f0a142fd40d49347",
        "size": "0x410",
        "stateRoot": "0xd6fc0ec72eb5413a470764cb9e47fdfcc404c39212f1d509a61ce6746f1230a8",
        "timestamp": "0x56be5a83",
        "totalDifficulty": "0x622680ff710c0392",
        "transactions": [
            {
                "blockHash": "0xda8c5b2a4bd72196475b83d9633c9d2a0abc7fe6b9e0c6edc546c4bb2d2de688",
                "blockNumber": "0xf2df0",
                "chainId": null,
                "condition": null,
                "creates": null,
                "from": "0xb13011f391e8a93c2bf563f4d3dc3ec17a21573e",
                "gas": "0x1d8a8",
                "gasPrice": "0x12bfb19e60",
                "hash": "0x247adbdf951221f83d1eb299dde093b6ced55a710e3d4f64cab64ffc903b18cc",
                "input": "0x",
                "nonce": "0x8",
                "publicKey": "0x83e935239234b894b8e9c006606ad747c2883dada851dc7a188c0d1378803e7c02169c53b2243194d301b604b8415f5777323e974cf9cbcb4770b764cdccc66d",
                "r": "0x8beea9cdb3e0251dba32b99671b15d30fcfd706f404aa8bdf4c7e4bd849527eb",
                "raw": "0xf86d088512bfb19e608301d8a89440b9c6774ebfba8ef71d153658c5bd22ff8be81f882d1a51c7e0050000801ba08beea9cdb3e0251dba32b99671b15d30fcfd706f404aa8bdf4c7e4bd849527eba04227e390d9cf843bdccf06adc9c9bcb74150561e9dabd04e05c3fdfd83b731ca",
                "s": "0x4227e390d9cf843bdccf06adc9c9bcb74150561e9dabd04e05c3fdfd83b731ca",
                "standardV": "0x0",
                "to": "0x40b9c6774ebfba8ef71d153658c5bd22ff8be81f",
                "transactionIndex": "0x0",
                "v": "0x1b",
                "value": "0x2d1a51c7e0050000"
            },
            {
                "blockHash": "0xda8c5b2a4bd72196475b83d9633c9d2a0abc7fe6b9e0c6edc546c4bb2d2de688",
                "blockNumber": "0xf2df0",
                "chainId": null,
                "condition": null,
                "creates": null,
                "from": "0x2910543af39aba0cd09dbb2d50200b3e800a63d2",
                "gas": "0x186a0",
                "gasPrice": "0xba43b7400",
                "hash": "0x6775b5c3f87d596f8dccd2ae96f2133437229ea2283dc03f339da7d2bbb9350d",
                "input": "0x",
                "nonce": "0x207e",
                "publicKey": "0xe959f70b8b29d254d55ff4a09249066cc2b3e7ee2605c38453cfb1a1972298636fe7225be9fd030453d0ca7d67ed8014d3babe7a8b341ee22e368138fca14d0f",
                "r": "0x3a735f2e7529b83e2a69f00197d0d5905d09d73d6d60981cbe4b71da3b313fbc",
                "raw": "0xf87082207e850ba43b7400830186a0942b0a54774f964f3afbfdce6e85c559c75e73e5f58908219949cadcb78000801ca03a735f2e7529b83e2a69f00197d0d5905d09d73d6d60981cbe4b71da3b313fbca00a18cd28972bcec23cc19e4ebe6525171888696eb910f973a20cf68111fb939d",
                "s": "0xa18cd28972bcec23cc19e4ebe6525171888696eb910f973a20cf68111fb939d",
                "standardV": "0x1",
                "to": "0x2b0a54774f964f3afbfdce6e85c559c75e73e5f5",
                "transactionIndex": "0x1",
                "v": "0x1c",
                "value": "0x8219949cadcb78000"
            },
            {
                "blockHash": "0xda8c5b2a4bd72196475b83d9633c9d2a0abc7fe6b9e0c6edc546c4bb2d2de688",
                "blockNumber": "0xf2df0",
                "chainId": null,
                "condition": null,
                "creates": null,
                "from": "0xe60d047a7f89348a473eb1b32c27a13cb459d776",
                "gas": "0x2c7ed",
                "gasPrice": "0xba43b7400",
                "hash": "0xe646e98e18c5138cc07e5d74a1f22eeb98517877273f45f07ac0490424542ee1",
                "input": "0xb61d27f6000000000000000000000000fb6916095ca1df60bb79ce92ce3ea74c37c5d3590000000000000000000000000000000000000000000000001bf32a5451a30000000000000000000000000000000000000000000000000000000000000000006000000000000000000000000000000000000000000000000000000000000000000000000000000000000000000000000000000000000000000000000000000000",
                "nonce": "0x11",
                "publicKey": "0x1fbe5e85a27c5b92ce93003251684a01f4c60b52b4f3e0189fd9a9c50e64c373db1f7738dcdda4b90605ebfde8837df8fb6e4afbb4cb70e81180be61191acc86",
                "r": "0xe1d2381111690fc1eb3c7e8c58eb484bab8d91ed2eec544158a2f2f183e34ce1",
                "raw": "0xf9010a11850ba43b74008302c7ed94fef3d78f16e1f97b0917b7ada2040e649d64fe9c80b8a4b61d27f6000000000000000000000000fb6916095ca1df60bb79ce92ce3ea74c37c5d3590000000000000000000000000000000000000000000000001bf32a5451a300000000000000000000000000000000000000000000000000000000000000000060000000000000000000000000000000000000000000000000000000000000000000000000000000000000000000000000000000000000000000000000000000001ca0e1d2381111690fc1eb3c7e8c58eb484bab8d91ed2eec544158a2f2f183e34ce1a0194a66d55c573acb1d24b440ef4a71f3b3f75c7558041fa6528ef770eedda605",
                "s": "0x194a66d55c573acb1d24b440ef4a71f3b3f75c7558041fa6528ef770eedda605",
                "standardV": "0x1",
                "to": "0xfef3d78f16e1f97b0917b7ada2040e649d64fe9c",
                "transactionIndex": "0x2",
                "v": "0x1c",
                "value": "0x0"
            }
        ],
        "transactionsRoot": "0xda32a0d3515d12c890e1d9a18010ef1ca58414a15d397347cbd1de713647d12e",
        "uncles": []
    },
    "id": 1
}
