{
    "jsonrpc": "2.0",
    "result": {
        "blockHash": "0xda8c5b2a4bd72196475b83d9633c9d2a0abc7fe6b9e0c6edc546c4bb2d2de688",
        "blockNumber": "0xf2df0",
        "chainId": null,
        "condition": null,
        "creates": null,
        "from": "0xe60d047a7f89348a473eb1b32c27a13cb459d776",
        "gas": "0x2c7ed",
        "gasPrice": "0xba43b7400",
        "hash": "0xe646e98e18c5138cc07e5d74a1f22eeb98517877273f45f07ac0490424542ee1",
        "input": "0xb61d27f6000000000000000000000000fb6916095ca1df60bb79ce92ce3ea74c37c5d3590000000000000000000000000000000000000000000000001bf32a5451a30000000000000000000000000000000000000000000000000000000000000000006000000000000000000000000000000000000000000000000000000000000000000000000000000000000000000000000000000000000000000000000000000000",
        "nonce": "0x11",
        "publicKey": "0x1fbe5e85a27c5b92ce93003251684a01f4c60b52b4f3e0189fd9a9c50e64c373db1f7738dcdda4b90605ebfde8837df8fb6e4afbb4cb70e81180be61191acc86",
        "r": "0xe1d2381111690fc1eb3c7e8c58eb484bab8d91ed2eec544158a2f2f183e34ce1",
        "raw": "0xf9010a11850ba43b74008302c7ed94fef3d78f16e1f97b0917b7ada2040e649d64fe9c80b8a4b61d27f6000000000000000000000000fb6916095ca1df60bb79ce92ce3ea74c37c5d3590000000000000000000000000000000000000000000000001bf32a5451a300000000000000000000000000000000000000000000000000000000000000000060000000000000000000000000000000000000000000000000000000000000000000000000000000000000000000000000000000000000000000000000000000001ca0e1d2381111690fc1eb3c7e8c58eb484bab8d91ed2eec544158a2f2f183e34ce1a0194a66d55c573acb1d24b440ef4a71f3b3f75c7558041fa6528ef770eedda605",
        "s": "0x194a66d55c573acb1d24b440ef4a71f3b3f75c7558041fa6528ef770eedda605",
        "standardV": "0x1",
        "to": "0xfef3d78f16e1f97b0917b7ada2040e649d64fe9c",
        "transactionIndex": "0x2",
        "v": "0x1c",
        "value": "0x0"
    },
    "id": 1
}
