{"jsonrpc":"2.0","result":{"blockHash":"0xa39e38734a536df2715a9ad215229bf75fc76bff6fceaddba5b2ac2f0a1014a5","blockNumber":"0xf172a","chainId":null,"condition":null,"creates":null,"from":"0xd1220a0cf47c7b9be7a2e6ba89f429762e7b9adb","gas":"0x23b1e","gasPrice":"0xba43b7400","hash":"0x354f50bd79b4c062e92a701beb8b00ec5e6890d6e3f956a79afa67dfe2eecbb4","input":"0x237e94920000000000000000000000000000000000000000000000000000000000000000000000000000000000000000000000000000000000000000000000000000004000000000000000000000000000000000000000000000000000000000000000000000000000000000000000000000000000000000000000000000000000000000","nonce":"0x7f","publicKey":"0x8136724af4cb9772365b52539bda0264147d8d5c6018f984f5641a3e24552fe23c22015f0594f92c54a8b66db34392abf63715b6d158615ceb8835e5d9c26a22","r":"0x3140be3ba0c6ea3bcdc14f2223bd63f12ea3945ce8b8669106b01c72e51ef1a9","raw":"0xf8ea7f850ba43b740083023b1e94fb6916095ca1df60bb79ce92ce3ea74c37c5d35980b884237e949200000000000000000000000000000000000000000000000000000000000000000000000000000000000000000000000000000000000000000000000000000040000000000000000000000000000000000000000000000000000000000000000000000000000000000000000000000000000000000000000000000000000000001ca03140be3ba0c6ea3bcdc14f2223bd63f12ea3945ce8b8669106b01c72e51ef1a9a07c68a10509086d583dde0f17b85322e996bf4ae0646d8789ca41a119679b6e03","s":"0x7c68a10509086d583dde0f17b85322e996bf4ae0646d8789ca41a119679b6e03","standardV":"0x1","to":"0xfb6916095ca1df60bb79ce92ce3ea74c37c5d359","transactionIndex":"0x1","v":"0x1c","value":"0x0"},"id":1}
